:020000040800F2
:10000000580D0020CD760008D9740008DB74000874
:1000100000000000000000000000000000000000E0
:10002000000000000000000000000000E57400086F
:100030000000000000000000E7740008E9740008F8
:100040003355000800000000EB6900088B6A0008C7
:10005000E36A00085F6B0008B36B00085770000884
:1000600000000000D77400083B760008F176000815
:10007000F3760008F5760008F77600080000000027
:10008000F1740008F9760008FB760008FD76000898
:10009000FF7600080177000803770008057700085D
:1000A00007770008097700080B770008FB74000841
:1000B000057500080F750008000000000000000032
:1000C00080B501F0A5FC1F2802DB00F0C1FB0FE0AA
:1000D00001F0A5FC042803DB00F01AF901F09BFCF9
:1000E00000F007F800F0A4F800F09EF900F03EFAE6
:1000F00001BDFEB5202101A801F06AFD0024250004
:100100002800C0B2102844DA012608272800C0B20F
:10011000390001F043FE01A9085C00902800C0B23C
:10012000390001F03BFE00980841304000282ED1F4
:10013000BB482900C9B208225143415C002926D19D
:100140002900C9B20822514346542900C9B20822E5
:10015000514341184D7021002A00D2B208235A435E
:100160008218117121002A00D2B208235A43821842
:10017000917104212A00D2B208235A438218517186
:1001800021002A00D2B208235A43801841806D1CF6
:10019000B6E7202101A801F084FD25002800C0B2A7
:1001A000102844DA012608272800C0B2390001F0DF
:1001B000F5FD01A9085C00902800C0B2390001F0EB
:1001C000EDFD00980841304000282ED195482900C7
:1001D000C9B208225143415C002926D12900C9B285
:1001E0000822514346542900C9B2082251434118FC
:1001F0004D7021002A00D2B208235A43821811718F
:1002000021002A00D2B208235A4382189171042196
:100210002A00D2B208235A438218517121002A00C1
:10022000D2B208235A43801841806D1CB6E7F7BD4F
:10023000F8B584B000242000042804DAFF2103AAC2
:100240001154401CF8E725002800C0B2102825DA18
:1002500073482900C9B208225143405C01281BD1D0
:10026000082603AF2800C0B2310001F097FD0290CC
:100270002800C0B2310001F091FD395C01910120EC
:1002800000902800C0B2310001F088FD009888403D
:1002900001998143029839546D1CD5E7202103A8A8
:1002A00001F0D6FD2000042804DAFF2103AA11542E
:1002B000401CF8E72000C0B2102823DA594821007A
:1002C000C9B208225143405C012819D1082503AE68
:1002D0002000C0B2290001F061FD01902000C0B2F1
:1002E000290001F05BFD315C009101272000C0B2C4
:1002F000290001F053FD8F400099B9430198315412
:10030000641CD7E7202103A801F0D8FD05B0F0BD9B
:1003100070B5002635002800C0B2042800DB7EE05E
:100320002800C0B201F00DFF012876D13400200072
:10033000C0B2102871DA01222100C9B22800C0B26F
:1003400001F05CFF01282ED101222100C9B2280052
:10035000C0B201F005FF324801212200D2B20823C9
:100360005A4381542100C9B20822514341184C70AC
:1003700031002200D2B208235A4382181171310091
:100380002200D2B208235A4382189171042122001C
:10039000D2B208235A43821851712100C9B20822EF
:1003A00051434018468002222100C9B22800C0B241
:1003B00001F024FF01282ED102222100C9B2280019
:1003C000C0B201F0CDFE174801212200D2B20823AD
:1003D0005A4381542100C9B20822514341184C703C
:1003E00031002200D2B208235A4382181171310021
:1003F0002200D2B208235A438218917104212200AC
:10040000D2B208235A43821851712100C9B208227E
:10041000514340184680641C89E76D1C7BE770BD22
:100420002C070020AC070020F0B5B3B000273D003A
:100430002800C0B2102800DB93E04B4E2800C0B269
:1004400008214843305C012840D12800C0B208216F
:10045000484330180079002838D13C002000C0B251
:10046000042833DA2100C9B2684601F047FE684625
:100470000178002928D1C178002925D18178012966
:1004800002D0817800291FD140782900C9B2884262
:100490001AD101222900C9B22000C0B201F087FEA2
:1004A00001202900C9B2082251437118087128009F
:1004B000C0B208214843301844712800C0B2082156
:1004C00048433018877101E0641CC7E7854E280057
:1004D000C0B208214843305C012840D12800C0B296
:1004E0000821484330180079002838D13C0020000A
:1004F000C0B2042833DA2100C9B2684601F0FEFD1B
:1005000068460178002928D1C178002925D1817851
:10051000022902D0817800291FD140782900C9B270
:1005200088421AD102222900C9B22000C0B201F0CB
:100530003EFE01202900C9B20822514371180871FA
:100540002800C0B208214843301844712800C0B2C6
:10055000082148433018877101E0641CC7E76D1C0F
:1005600066E733B0F0BD00002C070020F0B585B081
:100570000027684607703D002800C0B2102800DB45
:1005800091E0684E2800C0B208214843305C012841
:100590003FD12800C0B20821484330180079002814
:1005A00037D13C002000C0B204280EDA0122290015
:1005B000C9B22000C0B200F0C7F901A92200D2B22E
:1005C00004235A438850641CECE702222900C9B274
:1005D00001A800F0E5FE6946087001222900C9B2B1
:1005E0006846007801F0E3FD01202900C9B2082225
:1005F000514371180871684600782900C9B2082271
:100600005143711848712800C0B20821484330187E
:100610008771344E2800C0B208214843305C01285D
:100620003FD12800C0B20821484330180079002883
:1006300037D13C002000C0B204280EDA0222290083
:10064000C9B22000C0B200F07FF901A92200D2B2E5
:1006500004235A438850641CECE701222900C9B2E4
:1006600001A800F09DFE6946087002222900C9B267
:100670006846007801F09BFD01202900C9B20822DC
:10068000514371180871684600782900C9B20822E0
:100690005143711848712800C0B2082148433018EE
:1006A00087716D1C68E705B0F0BD30B502000B0026
:1006B000DBB2012B07D11B4B1400E4B208256C43BD
:1006C0001B5D18000AE00B00DBB2022B06D1054BC4
:1006D0001400E4B208256C431B5D1800C0B230BDA5
:1006E00000000000AC07002030B502000B00DBB2B8
:1006F000012B08D10B4B1400E4B208256C431B19E5
:100700005B7918000BE00B00DBB2022B07D18C4B9E
:100710001400E4B208256C431B195B791800C0B2C1
:1007200030BD00002C07002030B50B00DBB2012BE0
:1007300007D1464B0400E4B208256C431B199A719B
:100740000AE00B00DBB2022B06D17D4B0400E4B2C1
:1007500008256C431B199A7130BD30B502000B009F
:10076000DBB2012B08D1394B1400E4B208256C43ED
:100770001B199B7918000BE00B00DBB2022B07D191
:100780006F4B1400E4B208256C431B199B791800C9
:10079000C0B230BD70B504000D002800C0B2012801
:1007A00027D101212000C0B201F0C2FB002027495F
:1007B00002002300DBB208267343CA542200D2B2DF
:1007C00008235A438A18508004222300DBB20826EB
:1007D0007343CB185A7102002300DBB2082673431F
:1007E000CB181A712200D2B208235A438918887193
:1007F0002AE02800C0B2022826D102212000C0B27F
:1008000001F096FB4E4800210A002300DBB20826C7
:100810007343C2542200D2B208235A438218518033
:1008200004222300DBB208267343C3185A710A005E
:100830002300DBB208267343C3181A712200D2B218
:1008400008235A438018817170BD00002C070020D6
:1008500070B501F0CEFB002635002800C0B2042898
:1008600016DA34002000C0B210280FDA012221006D
:10087000C9B22800C0B201F073FC02222100C9B243
:100880002800C0B201F06CFC641CEBE76D1CE4E7CF
:1008900030000100C9B2102951DA2A4932000300A0
:1008A000DBB208246343CA540200D2B208235A437D
:1008B0008A18507032000300DBB208246343CB185F
:1008C0001A7132000300DBB208246343CB189A711B
:1008D000042213000400E4B208256C430C19637170
:1008E0000300DBB208246343C9184E801449330067
:1008F0000400E4B208256C430B550300DBB2082466
:100900006343CB18587033000400E4B208256C43ED
:100910000C19237133000400E4B208256C430C1950
:10092000A3710300DBB208246343CB185A710200A1
:10093000D2B208235A4389184E80401CA9E770BDE3
:10094000AC0700202C070020F7B5B8B00026340013
:100950003500029603960196102000903898010009
:10096000C9B204A801F0CAFB3AA80078012804D053
:10097000022800D177E200F00EFD1B4804A94A7856
:10098000399B08277B43C3185B789A4200D3CEE09B
:1009900034008A78012A2DD1399A08235A438218C3
:1009A00052784B78D21A03235A4302924A781500A0
:1009B000399A08235A4382185278954216DA04224B
:1009C0006A438A18927A002A06D104226A438A1856
:1009D0004A23D25C002A05D0320004236B43CB1893
:1009E0009A72641C6D1CE3E72C0700208879604331
:1009F000039037E28A78022A65D14A780192320060
:100A00004B789A4217DA04235343CB184A27DB5D0D
:100A1000012B0CD004235343CB188A27DB5D012B19
:100A200005D004235343CB189B7A012B01D10192AB
:100A300001E0521CE4E74A78019BD21A399B08274F
:100A40007B43C3185B78D218019BD21A03235A4305
:100A50000292019A399B08256B43C3185B789A422E
:100A600014DA04235343CB189B7A002B06D10423BA
:100A70005343CB184A255B5D002B05D0330004257A
:100A800055434D19AB72641C521CE3E7019D487835
:100A9000A84214DB042068430818807A002806D195
:100AA0000420684308188A22805C002805D03000A2
:100AB00004226A438A189072641C6D1CE7E78879E7
:100AC00060430390CEE18A78002A00D0CAE1CA7858
:100AD000002A00D0C6E1399A08235A438218527876
:100AE0004B78D21A03235A4302924A781500399A56
:100AF00008235A4382185278954214DA04226A4332
:100B00008A18927A002A06D104226A438A184A2354
:100B1000D25C002A05D0320004236B43CB189A72B2
:100B2000641C6D1CE3E78879604303909AE1399A6D
:100B300008235A43821852784B789A4200D391E1A5
:100B400034008A78012A00D0EFE04A7800920F2220
:100B50004B78934217DA04235343CB184A27DB5DC3
:100B6000012B0CD004235343CB188A27DB5D012BC8
:100B700005D004235343CB189B7A012B01D100925B
:100B800001E0521EE4E7399A08235A43821852784A
:100B900001923200102A17DA04235343CB184A2754
:100BA000DB5D012B0CD004235343CB188A27DB5D7C
:100BB000012B05D004235343CB189B7A012B01D181
:100BC000019201E0521CE5E7399A08235A43821842
:100BD0005278019B9A4243DA009A4B78D21A009BD2
:100BE000D218399B08277B43C3185B78D21A03239A
:100BF0005A4302924A78009B934214DB04235343E6
:100C0000CB189B7A002B06D104235343CB184A25DB
:100C10005B5D002B05D03300042555434D19AB72A5
:100C2000641C521CE7E7399B08256B43C0184578C4
:100C30000098A84275DB042068430818807A0028D1
:100C400006D10420684308188A22805C002805D059
:100C5000300004226A438A189072641C6D1CE7E716
:100C6000009A4B78D21A399B08277B43C3185B78CC
:100C7000D218019BD21A009BD218019BD21A0323CF
:100C80005A4302924A78009B934214DB0423534355
:100C9000CB189B7A002B06D104235343CB184A254B
:100CA0005B5D002B05D03300042555434D19AB7215
:100CB000641C521CE7E7019B009A9A4214DB042251
:100CC0005A438A18927A002A06D104225A438A1873
:100CD0008A25525D002A05D0320004255D434D1956
:100CE000AA72641C5B1CE7E7019D399A08235A43EA
:100CF00082185278954214DA04226A438A18927A4A
:100D0000002A06D104226A438A184A23D25C002AA8
:100D100005D0320004236B43CB189A72641C6D1CFF
:100D2000E3E78879604303909CE08A78022A68D1DF
:100D3000399A08235A438218527801923200102AB5
:100D400017DA04235343CB184A27DB5D012B0CD061
:100D500004235343CB188A27DB5D012B05D00423E2
:100D60005343CB189B7A012B01D1019201E0521C15
:100D7000E5E74A78019BD21A399B08277B43C318C1
:100D80005B78D218019BD21A03235A430292019A2C
:100D9000399B08256B43C3185B789A4214DA042305
:100DA0005343CB189B7A002B06D104235343CB1813
:100DB0004A255B5D002B05D03300042555434D19B2
:100DC000AB72641C521CE3E7019D4878A84214DB17
:100DD000042068430818807A002806D1042068435C
:100DE00008188A22805C002805D0300004226A435B
:100DF0008A189072641C6D1CE7E788796043039041
:100E000030E08A78002A2DD1CA78002A2AD14A787F
:100E1000399B08277B43C3185B78D21A03235A43B4
:100E200002924A781500399A08235A438218527858
:100E3000954214DA04226A438A18927A002A06D16B
:100E400004226A438A184A23D25C002A05D0320061
:100E500004236B43CB189A72641C6D1CE3E78879FA
:100E60006043039097E2174804A94A78399B082702
:100E70007B43C3185B789A4200D3B3E134008A788D
:100E8000012A79D1399A08235A438218527800925C
:100E90000F224B78934219DA04235343CB184A2785
:100EA000DB5D012B0CD004235343CB188A27DB5D79
:100EB000012B05D004235343CB189B7A012B03D17C
:100EC000009203E0AC070020521EE2E7009A399B33
:100ED00008277B43C3185B789A4205DA399A0823BE
:100EE0005A43821852780092009A4B78D21A009B8B
:100EF000D218399B08277B43C3185B78D21A032387
:100F00005A4302924A78009B934214DB04235343D2
:100F1000CB189B7A002B06D104235343CB184A25C8
:100F20005B5D002B05D03300042555434D19AB7292
:100F3000641C521CE7E7399B08256B43C0184578B1
:100F40000098A84214DB042068430818807A00281F
:100F500006D10420684308188A22805C002805D046
:100F6000300004226A438A189072641C6D1CE7E703
:100F70008879604303900EE28A78022A00D0FDE06F
:100F8000399A08235A438218527800920F224B78DC
:100F9000934217DA04235343CB184A27DB5D012B16
:100FA0000CD004235343CB188A27DB5D012B05D0DB
:100FB00004235343CB189B7A012B01D1009201E00B
:100FC000521EE4E7009A399B08277B43C3185B78DD
:100FD0009A4205DA399A08235A43821852780092C5
:100FE0004A7801923200102A17DA04235343CB18AF
:100FF0004A27DB5D012B0CD004235343CB188A27EF
:10100000DB5D012B05D004235343CB189B7A012BC6
:1010100001D1019201E0521CE5E7399A08235A43B5
:1010200082185278009B9A4243DB4A78019BD21A7D
:10103000399B08277B43C3185B78D218019BD21ACF
:1010400003235A430292019A4B78934214DB042300
:101050005343CB189B7A002B06D104235343CB1860
:101060008A255B5D002B05D03300042555434D19BF
:10107000AB72641C521CE7E7019D399A08235A435E
:1010800082185278954275DA04226A438A18927A55
:10109000002A06D104226A438A184A23D25C002A15
:1010A00005D0320004236B43CB189A72641C6D1C6C
:1010B000E3E74A78019BD21A009BD218019BD21A0F
:1010C000009BD218399B08277B43C3185B78D21A40
:1010D00003235A430292019A4B78934214DB042370
:1010E0005343CB189B7A002B06D104235343CB18D0
:1010F0008A255B5D002B05D03300042555434D192F
:10110000AB72641C521CE7E7019B009A9A4214DB05
:1011100004225A438A18927A002A06D104225A439A
:101120008A184A25525D002A05D0320004255D4305
:101130004D19AA72641C5B1CE7E7399A08256A43BB
:10114000801845780098A84214DB042068430818EA
:10115000807A002806D10420684308188A22805C1F
:10116000002805D0300004226A438A189072641C5B
:101170006D1CE7E78879604303900CE18A78002AC8
:1011800000D008E1CA78002A00D004E1399A082387
:101190005A43821852784B78D21A03235A43029248
:1011A0004A781500399A08235A4382185278954292
:1011B00014DA04226A438A18927A002A06D1042299
:1011C0006A438A184A23D25C002A05D032000423DD
:1011D0006B43CB189A72641C6D1CE3E788796043FB
:1011E0000390D8E0399A08235A43821852784B78F2
:1011F0009A4200D3CFE034008A78012A6BD14A7832
:1012000000920F224B78934217DA04235343CB18F2
:101210004A27DB5D012B0CD004235343CB188A27CC
:10122000DB5D012B05D004235343CB189B7A012BA4
:1012300001D1009201E0521EE4E7009A4B789A42F5
:1012400001DA4A780092009A4B78D21A009BD218A1
:10125000399B08277B43C3185B78D21A03235A4370
:1012600002924A78009B934214DB04235343CB1829
:101270009B7A002B06D104235343CB184A255B5D90
:10128000002B05D03300042555434D19AB72641C67
:10129000521CE7E7399B08256B43C0184578009836
:1012A000A84214DB042068430818807A002806D17D
:1012B0000420684308188A22805C002805D030008A
:1012C00004226A438A189072641C6D1CE7E78879CF
:1012D000604303905FE08A78022A2BD14A78399BD9
:1012E00008277B43C3185B78D21A03235A43029220
:1012F000399A08235A438018407805004878854277
:1013000014DA042068430818807A002806D10420E3
:10131000684308188A22805C002805D03000042227
:101320006A438A189072641C6D1CE7E788796043F1
:10133000039030E08A78002A2DD1CA78002A2AD179
:101340004A78399B08277B43C3185B78D21A03235A
:101350005A430292399A08235A438018407805006C
:101360004878A84214DB042068430818807A0028D3
:1013700006D10420684308188A22805C002805D022
:10138000300004226A438A189072641C6D1CE7E7DF
:101390008879604303900298039940183BB0F0BDF0
:1013A000F7B5070000252C0000952E003000C0B2D4
:1013B00004280FDA3000C0B200F0C3FE002807D1C5
:1013C0003000C0B20421484338580090340001E096
:1013D000761CEBE72800C0B2042820DA2800C0B24F
:1013E0000421484338580099884216DA2800C0B2D0
:1013F00000F0A7FE002810D16846017A68460079FF
:10140000FFF772F92900C9B2884206D02800C0B29D
:1014100004214843385800902C006D1CDAE7200066
:10142000C0B2FEBD78B5B3B07C4E3078002807D08E
:10143000022800D1D8E058D3032800D1DBE0E5E052
:10144000774C1021207800F0ADFB00280CD0102143
:10145000207800F065FB032030700020714922786D
:1014600002235A4388523FE06E4D207802214843C0
:10147000285A0A2830DB0022664821780223594383
:10148000415A6548237804267343C05801F062F935
:10149000207801F064FA2178684600F02FFE0120E0
:1014A000694608702178402000F0D6FE217801209E
:1014B00000F04DFE2178684600F032FE0020010069
:1014C000227802235A43A9522178491C217021789D
:1014D000042909D1207007E02078401C2070207872
:1014E000042801D10020207090E04D4D2021287863
:1014F00000F058FB00286CD02021287800F010FB69
:101500002978202000F0A8FE0024200046492A78EF
:1015100002235A438852287800F013FE00284BD14A
:101520003C48297802225143415A3B482A780423F7
:101530005A43805801F034F92000C0B2102848DA2C
:1015400001212000C0B2FFF7CFF82978C0B288424D
:1015500013D101212000C0B2FFF7FFF800280CD101
:1015600001212000C0B2FFF7A0F8012805D1012217
:1015700001212000C0B2FFF7D7F802212000C0B23D
:10158000FFF7B2F82978C0B2884213D102212000B7
:10159000C0B2FFF7E2F800280CD102212000C0B24F
:1015A000FFF783F8012805D1012202212000C0B2F3
:1015B000FFF7BAF8641CBFE7012216482978022316
:1015C0005943415A14482B7804246343C05801F00E
:1015D000C1F80020010031702978491C2970297850
:1015E000042900D1287011E00D48007800F05BF963
:1015F000012030700AE00A48007800F017F800284F
:1016000002D00220307001E00020307034B070BD94
:1016100000000000100000200000002054090020FD
:10162000550900202809002020090020F1B5BAB092
:10163000002400252800C0B20E280BDA2900C9B208
:101640003AA8007801F0CEF803A92A00D2B2885453
:101650006D1CEFE700230C22002103A800F0E4F941
:1016600003AE717BC0B2814200D013E101230C2292
:10167000002103A800F0D8F9317BC0B2814200D02C
:1016800008E13AA8017807A800F038FD07AD3078E6
:101690008007800FA87030780C210140E970F07845
:1016A0000007000F694608726846007A6870B07AD1
:1016B000A871F078C0B20009687100276879390014
:1016C000C9B288421AD308243800C0B2210000F001
:1016D00065FB3018007A00903800C0B2210000F09D
:1016E0005DFB009808410100C907C90F3800C0B26E
:1016F00004225043281881727F1CDFE710203178C4
:101700000200114218D17178A6220A40002A13D192
:10171000B17877220A40002A0ED17178090705D5E1
:10172000F1780907090F6A79914205D17178014270
:101730000FD0F07800070CD0012028703AA801786B
:10174000402000F089FD3AA80178012000F0FFFC5C
:101750000EE00024200028703AA80178802000F0D4
:101760007BFD3AA80178002000F0F1FCAD48048030
:1017700000242000C0B2102800DB7FE008272000F2
:10178000C0B20421484328184A21405C019020003F
:10179000C0B2390000F002FB301800790090200040
:1017A000C0B2390000F0FAFA009808410100C907F8
:1017B000C90F0198884222D001212000C0B2FEF753
:1017C00093FF3AA90978884219D12878002816D1C0
:1017D00001212000C0B2FEF7C0FF01280FD1012176
:1017E0002000C0B2FEF7D6FF00202100C9B20422BB
:1017F000514369184A228854022001F0C9F9200097
:10180000C0B20421484328188A21405C019020007E
:10181000C0B2390000F0C2FA301880790090200080
:10182000C0B2390000F0BAFA009808410100C907B7
:10183000C90F019888421FD002212000C0B2FEF7D4
:1018400053FF3AA90978884216D12878002813D185
:1018500002212000C0B2FEF780FF01280CD1022136
:101860002000C0B2FEF796FF00202100C9B204227A
:10187000514369188A228854641C7AE73AA801788F
:1018800007A800F04DFC02213AA8007800F0E9F822
:10189000012005E004213AA8007800F0E2F80020D9
:1018A000C0B23BB0F0BDFEB5060000242000010030
:1018B000C9B209290ADABA493200D2B209235A4315
:1018C00089180200D2B28C54401CF0E7B44D1E209F
:1018D0003100C9B2092251436854DC203100C9B239
:1018E0000922514369184870EC203100C9B209221D
:1018F0005143691888702000C0B2102861DA0122B3
:101900002100C9B23000C0B200F078FC012826D115
:1019100008272000C0B2390000F040FA3100C9B2F7
:10192000092251436918091802912000C0B23900F8
:1019300000F034FA3100C9B209225143691808187D
:10194000C1780191012000902000C0B2390000F060
:1019500025FA00988840019908430299C87002222C
:101960002100C9B23000C0B200F048FC012826D1E5
:1019700008272000C0B2390000F010FA3100C9B2C7
:10198000092251436918091802912000C0B2390098
:1019900000F004FA3100C9B209225143691808184D
:1019A00041790191012000902000C0B2390000F07F
:1019B000F5F9009888400199084302994871641C20
:1019C00099E70023072203213000C0B209246043B5
:1019D000281800F029F83100C9B2092251436918CA
:1019E00008720123072203213000C0B2092460439A
:1019F000281800F019F83100C9B2092251436918BA
:101A0000C871F7BD6649C0B2092250430818704733
:101A1000044800887047002068490880704767487C
:101A20000088704750090020F2B5010000252C0005
:101A30006846007806001700F6B2FFB2BE4205D233
:101A40000600F6B28E5DA419401CF3E71800C0B280
:101A5000002803D1200080B2000A00E02000C0B2BC
:101A6000F2BD10B50A00D2B2012A08D0022A10D065
:101A7000042A18D0102A20D0202A28D030E0504A3A
:101A80000300DBB2D35C01241C430300DBB2D4545B
:101A900026E04B4A0300DBB2D35C02241C43030064
:101AA000DBB2D4541CE0464A0300DBB2D35C04240E
:101AB0001C430300DBB2D45412E0414A0300DBB202
:101AC000D35C10241C430300DBB2D45408E03C4A2E
:101AD0000300DBB2D35C20241C430300DBB2D454EC
:101AE00010BD00B50020042811DA36490222424315
:101AF0008A5A521C02234343CA52334902224243A8
:101B00008A5A521C02234343CA52401CEBE72B481B
:101B10000188491C01802D480188491C018000BDB5
:101B200010B50A00D2B2012A08D0022A10D0042A25
:101B300018D0102A20D0202A28D030E0204A0300D4
:101B4000DBB2D35CFE241C400300DBB2D45426E09D
:101B50001B4A0300DBB2D35CFD241C400300DBB254
:101B6000D4541CE0164A0300DBB2D35CFB241C40B7
:101B70000300DBB2D45412E0114A0300DBB2D35CA1
:101B8000EF241C400300DBB2D45408E00C4A0300ED
:101B9000DBB2D35CDF241C400300DBB2D45410BDA5
:101BA000FC08002000B5064AC0B2105C084201D013
:101BB000012000E00020C0B200BD0000520900205A
:101BC00030090020280900202009002050090020A9
:101BD000F2B584B00600654D00220421280000F013
:101BE000B9FD01220421280000F0B4FD00242000EA
:101BF0006946097CC0B2884251D28021490128003F
:101C000000F08CFD00281FD008272000C0B239004A
:101C100000F0C4F803902000C0B2390000F0BEF814
:101C2000305C029001210191072000902000C0B299
:101C3000390000F0B3F80098401A019981400298E9
:101C40000143039831541EE008272000C0B2390038
:101C500000F0A4F803902000C0B2390000F09EF814
:101C6000315C029101200190072000902000C0B259
:101C7000390000F093F80098411A019888400299C1
:101C800081430398315401220221280000F062FDB3
:101C900000220221280000F05DFD641CA7E705B0CA
:101CA000F0BDF3B583B00700304E802464000022FD
:101CB0002100300000F04EFD01222100300000F034
:101CC00049FD002420006946097CC0B288424BD2FD
:101CD0008021300000F022FD00281CD008252000C3
:101CE000C0B2290000F05AF8010002912000C0B2F1
:101CF000290000F053F8395C019101200090200088
:101D0000C0B2290000F04AF80098884001990843C1
:101D1000029978541AE008252000C0B2290000F08A
:101D20003DF802902000C0B2290000F037F8395C7D
:101D30000191012000902000C0B2290000F02EF88F
:101D40000098884001998143029839548025AD005C
:101D500001222900300000F0FDFC002229003000A3
:101D600000F0F8FC641CADE705B0F0BD00040048CD
:101D7000F446002804D4494200F013F8404260477A
:101D80004042002905D45FD000F00BF840424942A0
:101D90006047494200F005F84942604703460B435B
:101DA000E6D40022030A8B420BD203098B4219D2DC
:101DB00043088B422ED2411A00D2014652411046AE
:101DC0007047FF2209023FD012068B4205D3121240
:101DD00009028B4201D31212090203098B4219D363
:101DE00000E0090AC3098B4201D3CB01C01A52415A
:101DF00083098B4201D38B01C01A524143098B42A4
:101E000001D34B01C01A524103098B4201D30B018C
:101E1000C01A5241C3088B4201D3CB00C01A5241B1
:101E200083088B4201D38B00C01A524143088B4276
:101E300001D34B00C01A5241884200D3401A52418C
:101E4000CFD201461046704708B500F0B7FE08BD76
:101E5000F3B581B007009026F605002280213000FE
:101E600000F078FC6846047A641E002C20D4082513
:101E700020002900FFF792FF385C00902000290025
:101E8000FFF78CFF009808410200D207D20F4021D3
:101E9000300000F05FFC794D01220121280000F0A4
:101EA00059FC00220121280000F054FC641EDCE7EC
:101EB00001228021300000F04DFCF7BDF2B582B068
:101EC00006006E4D00222021280000F043FC6846E9
:101ED000047A641E002C25D4082720003900FFF75F
:101EE0005DFF305C01900720009020003900FFF773
:101EF00055FF0098411A019808410200D207D20FFD
:101F0000802149019020C00500F024FC01224021DD
:101F1000280000F01FFC00224021280000F01AFCDD
:101F2000641ED7E701222021280000F013FCF7BD32
:101F3000F8B584B004000D000020042804DAFF2165
:101F400003AA1154401CF8E72800C0B2012825D18B
:101F5000202103A8FFF73CFE082603AF2000C0B2F3
:101F60003100FFF71BFF010002912000C0B23100D9
:101F7000FFF714FF395C0191012000902000C0B2EE
:101F80003100FFF70BFF0098884001990843029940
:101F90007854202103A8FFF75BFF28E02800C0B297
:101FA000022824D1202103A8FFF77BFE082603AFD7
:101FB0002000C0B23100FFF7F1FE010002912000C5
:101FC000C0B23100FFF7EAFE395C019101200090B8
:101FD0002000C0B23100FFF7E1FE0098884001996F
:101FE000084302997854202103A8FFF767FF05B042
:101FF000F0BDF8B59027FF0500228021380000F0E1
:10200000A9FB1F263500002D11D4012240213800E4
:1020100000F0A0FB194C01220121200000F09AFBE6
:1020200000220121200000F095FB6D1EEBE701224C
:102030008021380000F08EFB104D00222021280066
:1020400000F088FB3400002C11D4012280214901CA
:10205000380000F07FFB01224021280000F07AFBCD
:1020600000224021280000F075FB641EEBE70122EE
:102070002021280000F06EFBF1BD000000040048A4
:1020800038B5734C734D2078285C00280CD121782A
:10209000202000F0B3F9002806D0032021786854EE
:1020A0002178202000F046F92078285C03280CD104
:1020B0002178082000F0A2F9002803D02178082018
:1020C00000F038F900202178685499482178CA2214
:1020D0005143405C002804D12178802000F0BCF8F6
:1020E00003E02178402000F0B7F82078401C2070F1
:1020F0002078042801D10020207031BDF8B50400FB
:102100000D00CA268A482900C9B2CA225143401884
:102110000090270032000099380000F051FDF1BD19
:10212000F8B504000D00CA26009481482900C9B200
:10213000CA225143471832000099380000F040FD90
:10214000F1BD7B49C0B2CA225043085C704710B44D
:10215000774A0B00DBB2CA246343D05410BC7047EB
:1021600030B51300DBB2012B0ED1714B0400E4B289
:10217000CA256C431B190C00E4B204256C431B19DF
:102180004A2400251D5511E01300DBB2022B0DD1AE
:10219000674B0400E4B2CA256C431B190C00E4B27F
:1021A00004256C431B198A2400251D5530BD30B50C
:1021B0001300DBB2012B0ED15D4B0400E4B2CA2543
:1021C0006C431B190C00E4B204256C431B194A2410
:1021D00001251D5511E01300DBB2022B0DD1544B2C
:1021E0000400E4B2CA256C431B190C00E4B20425B8
:1021F0006C431B198A2401251D5530BD70B50300A1
:102200001400E4B2012C0ED1494C1D00EDB2CA26D7
:10221000754364190D00EDB20426754364194A250F
:10222000645D200011E01400E4B2022C0DD1404C9A
:102230001D00EDB2CA26754364190D00EDB20426E7
:10224000754364198A25645D2000C0B270BD00002A
:10225000560900203409002010B50200D2B2012A2C
:102260000ED0022A20D0042A14D0082A2ED0102AF8
:1022700036D0202A3ED0402A46D0802A4ED056E082
:10228000614A0B00DBB2D35C01241C430B00DBB2C0
:10229000D4544CE05C4A0B00DBB2D35C04241C43F6
:1022A0000B00DBB2D45442E0574A0B00DBB2D35CE4
:1022B00002241C430B00DBB2D4540B00DBB2D35C12
:1022C00008241C430B00DBB2D45430E04E4A0B0010
:1022D000DBB2D35C08241C430B00DBB2D45426E0F1
:1022E000494A0B00DBB2D35C10241C430B00DBB269
:1022F000D4541CE0444A0B00DBB2D35C20241C43C2
:102300000B00DBB2D45412E03F4A0B00DBB2D35CCB
:1023100040241C430B00DBB2D45408E03A4A0B00C3
:10232000DBB2D35C80241C430B00DBB2D45410BD61
:10233000EC00002010B50200D2B2012A0ED0022A11
:1023400020D0042A14D0082A26D0102A2ED0202AE1
:1023500036D0402A3ED0802A46D04EE02A4A0B0092
:10236000DBB2D35CFE241C400B00DBB2D45444E04F
:10237000254A0B00DBB2D35CFB241C400B00DBB214
:10238000D4543AE0204A0B00DBB2D35CFD241C405D
:102390000B00DBB2D45430E01B4A0B00DBB2D35C41
:1023A000F7241C400B00DBB2D45426E0164A0B0085
:1023B000DBB2D35CEF241C400B00DBB2D4541CE036
:1023C000114A0B00DBB2D35CDF241C400B00DBB2F4
:1023D000D45412E00C4A0B00DBB2D35CBF241C4087
:1023E0000B00DBB2D45408E0074A0B00DBB2D35C2D
:1023F0005B065B0E0C00E4B2135510BD024AC9B275
:10240000515C0840C0B2704738090020FEB5070093
:102410000C0000259020C00587420FD0B4488742A9
:102420000CD0B448874209D0B348874206D0B3489D
:10243000874203D0B821B24800F06AFB206880B21E
:10244000002804D02068000C0004002803D0B92123
:10245000AB4800F05DFB606800282AD06068012866
:1024600027D06068112824D06068022821D06068D5
:1024700012281ED06068A34988421AD06068A24919
:10248000884216D06068A149884212D06068A0498D
:1024900088420ED060689F4988420AD060689E4991
:1024A000884206D06068032803D0BA21944800F01F
:1024B0002FFBA068002809D0A068012806D0A068DA
:1024C000022803D0BB218E4800F022FB2068E840A0
:1024D000002800D10AE1012620683100A94001400E
:1024E00001910198002800D1FEE06068012808D021
:1024F0006068022805D06068112802D06068122840
:1025000026D1E068002809D0E068012806D0E068FC
:10251000032803D0CB217A4800F0FAFAB8680321E7
:102520002A0002235A4391408843E1682A0002238B
:102530005A4391400143B9607A683000A840824311
:10254000606800093040A84010430090009878600F
:10255000F86803212A0002235A4391408843A16866
:102560002A0002235A439140014300910098F860E9
:102570006068022802D06068122838D19020C00517
:1025800087420FD05A4887420CD05A48874209D018
:102590005948874206D05948874203D0E32158481A
:1025A00000F0B6FA2069072803D3E421544800F06C
:1025B000AFFAE808042148433818006A0721844626
:1025C0000F222B0008001840042358438240604625
:1025D000904322692B001940042359438A40024347
:1025E0000092E808042148433818009901623A68CB
:1025F00003212B0002204343080098408243636874
:102600000B409C46280002235843634683401343F3
:102610000093009838606068C00065D54B48026838
:10262000324302600068304002900298484AA8088D
:1026300004235843105800900F239C462B00080099
:1026400018400423584363468340009898439023DE
:10265000DB059F4201D100260DE0254B9F420AD0A9
:10266000244B9F4201D1022605E0234B9F4201D11A
:102670000E0000E005262B001940042359438E402C
:102680000643A80804214843165051490868019A96
:1026900090436268D20302D502000198104308609B
:1026A0004C4A1168019B994363689B0302D508005B
:1026B000019901431160484A1068019B984363687F
:1026C000DB0202D5010001980843106043490A6803
:1026D000019B9A4300926268920203D50098019A86
:1026E00002430092009808606D1CEFE6F7BD000001
:1026F0000004004800080048000C0048001400488E
:10270000F4700008000011100000211000003110CA
:1027100000001210000022100000321038B5040032
:102720000D00280080B2002804D1C32149002C48A4
:1027300000F0EEF92069290089B20840002801D094
:10274000012000E00020C0B232BD0000181002409D
:102750000800014070B505000C001600200080B292
:10276000002804D1FF21A6311D4800F0D1F9300026
:10277000C0B2002808D03000C0B2012804D0D32154
:102780004900174800F0C4F93000C0B2002803D057
:10279000200080B2A86102E0200080B2A86270BD73
:1027A00038B504000D00280080B2002804D1FF21B4
:1027B000BE310B4800F0ACF96069290089B20140D4
:1027C00009042A0092B282430A43A26131BD00008B
:1027D0000004014004040140080401400C040140CD
:1027E000F47000089E4AC0B20E2358431018C9B2B4
:1027F000405C7047F8B5070038689A49884202D1B2
:102800000020040013E038689749884202D1012073
:1028100004000CE038689549884202D10220040087
:1028200005E038689249884201D103200400914DA7
:102830002000C0B2285C032830D18F4E8848210088
:10284000C9B20E22514340182100C9B2715C8B4AB3
:102850002300DBB2D25C42542000C0B2305C0E28B0
:1028600015D110212000C0B2FFF7FBF80020210095
:10287000C9B268542100C9B270542000C0B2FFF739
:10288000C1F801000922380000F0A2FA06E0200099
:10289000C0B2305C401C2100C9B270542000C0B2EC
:1028A000285C02280AD175482100C9B2405CDC28A6
:1028B00004D103202100C9B2685408E02000C0B24E
:1028C000285C022803D100202100C9B268542000EE
:1028D000C0B2285C01280AD168482100C9B2405C16
:1028E000EC2804D102202100C9B2685408E020007D
:1028F000C0B2285C012803D100202100C9B268546D
:102900002000C0B2285C00280AD15C482100C9B26E
:10291000405C1E2804D101202100C9B2685415E092
:102920002000C0B2285C002810D153482100C9B251
:10293000405C00280AD151482100C9B2405C0628F9
:1029400004D120212000C0B2FFF78BF801224B48B0
:102950002100C9B24118380000F07FFAF1BD002112
:10296000444A0300DBB2D154434A0300DBB2D154E2
:10297000704710B504002000FFF73CFF10BD10B5F4
:102980000400FFF7AEF810BD10B504000020FFF7FB
:1029900039F8010009223A4800F01AFA0120FFF73D
:1029A00031F809220100374800F012FA0220FFF73F
:1029B00029F809220100344800F00AFA0320FFF741
:1029C00021F809220100314800F002FA10BD10B5CB
:1029D00004002000FFF7D8FF10BD11B581B00C0036
:1029E0002B4B012201A92B4800F07AF9019816BD62
:1029F00010B501F073F800F051F801F07FF801F024
:102A0000F3F801F00DF901F023F901F03DF901F0BF
:102A100057F901F071F901F0CDFAFDF719FF1E48E1
:102A200001F0B6FB154C01222100154800F015FA03
:102A30000122611C134800F010FA0122A11C124867
:102A400000F00BFA0122E11C104800F006FAFDF735
:102A500037FBFFF715FBFEF7E5FCF8E70000000089
:102A6000C40800200014014000380140004C004020
:102A70000050004040090020440900203C0900208B
:102A8000A806002014040020A00500202406002031
:102A9000FFFF0000980400207C08002070B594B06F
:102AA00030210024220008AD280001F055FF102637
:102AB000310022006D46280001F04EFF220004ADD7
:102AC0003100280001F048FF012508950995109470
:102AD00008A801F069FF002801D000F018F80720CD
:102AE00000900195029403940021684602F0BAFA1E
:102AF000002801D000F00BF80495069504A802F018
:102B000015FC002801D000F002F814B070BD704729
:102B10007047F1B4016842184168480813180098DA
:102B20008068C9071ED5494640181BE01778521C1B
:102B30000770401C761EF9D1002C13D01678521C59
:102B400089080D40032D01D11578521C29027118F6
:102B50004D424119A41C05D00D78491C0570401C3C
:102B6000641EF9D19A420FD01178521C0325032616
:102B70000E4002D11678F61C521C0C090F2CD9D12C
:102B800014780F34521CD5E700980C30F2BC704713
:102B900070B5040002F0A0FC050026000020C04330
:102BA000864202D004480078361802F095FC401B9B
:102BB000B042FAD370BD00BFE800002070472E007D
:102BC000814202D25318984203D300B502F0A4FC0C
:102BD00000BD521E03D38B5C8354521EFBD2704740
:102BE00010B50400002C01D1012068E0A069002884
:102BF00015D02068324988422ED020683149884259
:102C00002AD020683049884226D020682F4988423F
:102C100022D0FF212C312E48FFF77AFF1CE02068DC
:102C20002749884218D020682649884214D0206855
:102C30002549884210D02068244988420CD0206859
:102C40002449884208D020682349884204D098212A
:102C500049001F48FFF75CFFA06F002805D1002046
:102C600074216054200001F06BF82420A0672068D4
:102C700000680121884321680860200000F07CFA88
:102C8000012801D101201AE0606A002802D020004A
:102C900000F0F8FB2068406810490140206841605E
:102CA000206880680821884321688860206800685F
:102CB0000121014320680160200000F0E1FC10BD0B
:102CC000003801400044004000480040004C0040F3
:102CD000A47200080050004000140140FFF7FFFFFD
:102CE000FEB582B00400A06F20286ED102980028A3
:102CF00003D068468089002801D1012066E0802544
:102D00006D01A068A84207D12069002804D102986B
:102D1000C00701D5012059E07420205C012801D1B1
:102D2000022053E0012074216054002780202750A6
:102D30002120A06702F0D0FB0190684680895021D5
:102D400060526846808952216052A068A84205D12D
:102D50002069002802D13D00029E01E0029D3E0054
:102D6000742027545220205A00281ED00498009026
:102D7000019B00228021200000F0C0FC002801D02F
:102D8000032023E0002D06D13088C005C00D216846
:102D90000885B61C03E02878216808856D1C522040
:102DA000205A401E52216052DCE704980090019B9B
:102DB00000224021200000F0A1FC002801D00320C7
:102DC00004E02020A067002000E0022005B0F0BD54
:102DD00030B50300986F20283DD1002903D01000A2
:102DE00080B2002801D1012036E0802040019C689B
:102DF000844207D11C69002C04D10C00E40701D5E2
:102E0000012029E074241C5D012C01D1022023E063
:102E1000012474255C55D96450241A5352241A5342
:102E200000249C6680255C5121259D679D68854214
:102E300005D11869002802D12548986601E0254887
:102E4000986674201C54186800688024044318682D
:102E50000460002000E0022030BD70B504000D00C9
:102E60001600E06F202831D1002D03D0300080B251
:102E7000002801D101202AE0A06880214901884270
:102E800007D12069002804D12800C00701D50120FE
:102E90001DE07420205C012801D1022017E00120F0
:102EA000742160540020206620684068000206D526
:102EB000206800688021C904014320680160320055
:102EC00092B22900200000F07DFC00E0022070BDDD
:102ED000513900080D390008FEB504002068C769A3
:102EE000206805682068806800909E4838400290FD
:102EF000029800280AD1B80608D5A80606D5606E43
:102F0000002802D02000616E88472AE1029800283C
:102F100000D19FE0012000990140002904D192498D
:102F20002940002900D195E001003940C9B20029AB
:102F300008D0E90506D5216808628021615801435F
:102F40008022A150B9070DD500990140C9B20029CE
:102F500008D00221226811628021615804220A43AC
:102F60008021625079070DD500990140C9B200292E
:102F700008D00421226811628021615802220A438C
:102F80008021625039070ED5A90604D40099084063
:102F9000C0B2002807D0082021680862802161584B
:102FA00008438021605038050BD5680109D5802081
:102FB00000012168086280202058202101438020E0
:102FC000215080202058002843D0B80607D5A806F5
:102FD00005D5606E002802D02000616E88478020F1
:102FE000205801904026206880683040002804D195
:102FF000019828210140002925D0200000F04CFC38
:10300000206880680640002E19D020688068402122
:10301000884321688860206F00280CD05348216FB6
:103020004863206F02F0ACFA002812D0206F216FA5
:10303000496B88470DE0200002F0CEFA09E020003D
:1030400002F0CAFA05E0200002F0C6FA0020802152
:10305000605086E0206E012870D1F8066ED5E80633
:103060006CD51020216808622068806840063BD536
:10307000206F00684668300080B2002833D03000EE
:103080005821615A80B288422DD25A202652206F90
:10309000806920281ED020680068354901402068DA
:1030A0000160206880680121884321688860206869
:1030B000806840218843216888602020E0670020E4
:1030C0002066206800681021884321680860206F0E
:1030D00002F030FA5820205A5A21615A411A89B216
:1030E000200002F07AFA3CE05820205A5A21615A16
:1030F000461A5A20205A00281FD0300080B20028DB
:103100001BD0206800681B490140206801602068CE
:10311000806801218843216888602020E0670020C2
:103120002066606620680068102188432168086076
:10313000310089B2200002F050FA12E0380608D5BA
:10314000280606D5A06E002802D02000A16E884770
:1031500007E0780605D5680603D5200000F01DFCC1
:10316000FFE7F7BD0F08000020010004F538000854
:10317000FFFEFFFFDFFEFFFFFEB50500002630006B
:10318000694608706868A949884203D3A849A948D4
:10319000FFF7BEFCA8688021490588420BD0A868CB
:1031A000002808D0A86880214901884203D0A2499C
:1031B000A048FFF7ADFCE86880214901884210D0A3
:1031C000E86800280DD0E868C0218901884208D04D
:1031D000E86880218901884203D098499548FFF723
:1031E00097FC286A002808D0286A802109018842B3
:1031F00003D093498F48FFF78BFC286900280DD036
:1032000028698021C900884208D02869C021C900E6
:10321000884203D08B498748FFF77AFC68690C2104
:103220008843002802D16869002803D18649814873
:10323000FFF76EFCA869002812D0A8698021490018
:1032400088420DD0A86980218900884208D0A869E9
:10325000C0218900884203D07C497648FFF758FC9A
:10326000E869002808D0E86980210902884203D073
:1032700077497048FFF74CFCA868296901436A69DF
:103280000A43E869104329680968724A0A40024300
:1032900029680A60296849686F4A0A40E968114349
:1032A0002A685160A9692A6A0A43029229688968D2
:1032B0006A4A0A40029911432A6891602968684A5B
:1032C000914215D1674800688007800F002805D01B
:1032D000022809D006D3032802D007E0340026E0F4
:1032E000022424E0042422E0082420E010241EE02C
:1032F00028685D49884201D1340018E028685B499C
:10330000884201D1340012E028685949884201D12D
:1033100034000CE028685749884201D1340006E0A7
:1033200028685549884201D1340000E010248027E4
:103330003F02E869B84240D12000C0B2002806D060
:10334000022808D0042808D008280AD00AE001F092
:10335000CAFF07000AE0494F08E001F083FF0700B9
:1033600004E003E03700012069460870002F57D0C1
:10337000022078436968490840186968FEF711FD22
:1033800080B201900198102813D30198802149023E
:1033900088420ED201993A480840019949084907E4
:1033A000490F014368464180684640882968C860E3
:1033B00036E001206946087032E02000C0B20028E3
:1033C00006D0022808D0042808D008280AD00AE02D
:1033D00001F089FF07000AE0284F08E001F042FFF2
:1033E000070004E003E03700012069460870002F61
:1033F00016D06868400838186968FEF7D2FC80B2B9
:1034000001900198102808D3019880214902884230
:1034100003D201982968C86002E00120694608705B
:103420006E66AE6668460078FEBD00BF818D5B00AB
:10343000E10B0000A4720008E20B0000E30B0000A7
:10344000E40B0000E60B0000E70B0000E80B0000B7
:10345000E90B0000F369FFEFFFCFFFFFFFF4FFFF71
:103460000038014030100240004400400048004055
:10347000004C0040005000400014014000127A004F
:10348000F0FF000010B50400606AFF2803D99549D9
:103490009548FFF73DFB2420205CC00713D5A06AA8
:1034A000002808D0A06A80218902884203D08F4971
:1034B0008D48FFF72DFB206840688D490140A06AC8
:1034C0000843216848602420205C800714D5E06A06
:1034D000002809D0E06A80214902884204D0C7212F
:1034E00009018148FFF714FB2068406881490140C9
:1034F000E06A0843216848602420205C400713D517
:10350000206B002808D0206B8021C902884203D09C
:1035100079497548FFF7FCFA20684068A2490140E4
:10352000206B0843216848602420205C000713D5E5
:10353000606B002808D0606B80210902884203D0AC
:103540009A496948FFF7E4FA2068406898490140C1
:10355000606B0843216848602420205CC00613D5B6
:10356000A06B002808D0A06B80214901884203D0BD
:1035700090495D48FFF7CCFA206880688E49014089
:10358000A06B0843216888602420205C800613D546
:10359000E06B002808D0E06B80218901884203D0CD
:1035A00086495148FFF7B4FA206880688449014091
:1035B000E06B0843216888602420205C400646D5E3
:1035C0002068AD4988420BD02068AC49884207D0BA
:1035D0002068AB49884203D0AA494348FFF798FACC
:1035E000206C002808D0206C80214903884203D039
:1035F000A5493D48FFF78CFA20684068A34901407F
:10360000206C084321684860206C8021490388426F
:103610001DD1606C002812D0606C80218903884223
:103620000DD0606C8021C903884208D0606CC02135
:10363000C903884203D096492B48FFF769FA2068EE
:10364000406894490140606C084321684860242028
:10365000205C000613D5A06C002808D0A06C802147
:103660000903884203D09B491F48FFF751FA20689D
:10367000406899490140A06C08432168486010BD2A
:103680007CB50500002480202C5001F025FF0600A9
:103690002868006800070CD590480090330000228D
:1036A00080218903280000F029F8002801D0032098
:1036B00017E02868006840070CD588480090330060
:1036C00000228021C903280000F018F8002801D04A
:1036D000032006E02020A867E8672C6674202C549D
:1036E000002076BD640C0000A4720008690C000084
:1036F000FFFFFDFFFFFFFEFF770C0000F4B50400A5
:103700000D001F00069E2068C0692840A84201D114
:10371000012000E0002069460978884241D100205C
:10372000C0438642EFD001F0D7FEC01B864201D3D2
:10373000002E13D1206800686949014020680160AB
:103740002068806801218843216888602020A06764
:10375000E067002074216054032023E020680068A3
:103760004007D0D5802000012168C96901400029A7
:10377000C9D0216808622068006859490140206862
:1037800001602068806801218843216888602020CA
:10379000A067E067802160500020742160540320FE
:1037A00000E00020F2BD0000FFFFFBFF7E0C0000E8
:1037B000FF7FFFFF850C0000FFEFFFFF8C0C000078
:1037C000FFDFFFFF70B50300596558201A525A20D9
:1037D0001A5200205866802464019D68A5420AD1CF
:1037E0001D69002D03D13F4D5C269D5324E0FF252C
:1037F0005C269D5320E09D68002D0AD11D69002D97
:1038000003D1FF255C269D5316E07F255C269D5342
:1038100012E09D6880267605B5420AD11D69002D0B
:1038200003D17F255C269D5306E03F255C269D53F2
:1038300002E005005C269D53802558512225DD6756
:103840001D68AD6801262E431D68AE609D68A542C7
:1038500005D11C69002C02D1234C5C6601E0234C8D
:103860005C6674241855186800689024640004434A
:1038700018680460002070BD00380140004400401A
:1038800000480040930C0000940C0000FFFFEFFF85
:10389000990C0000FFFF9FFF00B501680968144AFA
:1038A0000A4001680A600168896801229143026840
:1038B0009160016E012905D10168096810229143C8
:1038C000026811602021C16700210166416600BDC8
:1038D00000000000A10C0000FFFFF7FFFFFFFF0149
:1038E0005FFEFFFFFF010000493A0008BB390008F6
:1038F000DFFEFFFF38B50400656A00205A216852D8
:1039000052216852280001F067FE31BD00B5816F79
:1039100021291CD15221415A00290CD10168096882
:1039200080229143026811600168096840220A43BD
:1039300001680A600BE0C16C097802681185C16CEE
:10394000491CC1645221415A491E5222815200BD74
:1039500000B5826F212A1FD15222825A002A0CD12F
:103960000268126880239A4303681A60026812682A
:1039700040231343026813600EE0C26C11000A88F2
:10398000D205D20D03681A85C26C921CC264522201
:10399000825A521E5223C25200BD10B50400206844
:1039A000006840218843216808602020A06700202B
:1039B000A0662000FFF70BF810BDF8B504005C20EE
:1039C000265AE06F222837D12068808C0700380003
:1039D00031000140606D0170606D401C60655A20CF
:1039E000205A401E5A2160525A20205A002829D1BC
:1039F00020680068384901402068016020688068BC
:103A000001218843216888602020E06700256566E1
:103A1000206E01280BD1206800681021884321689E
:103A200008605820215A200001F0D7FD02E0200054
:103A3000FEF79FFF256605E02068806908210143A5
:103A400020688161F1BD0000F8B504005C20265AB1
:103A5000E06F222838D12068808C0700606D0090CC
:103A60003000384000990880606D801C60655A20E5
:103A7000205A401E5A2160525A20205A002829D12B
:103A8000206800681449014020680160206880684F
:103A900001218843216888602020E0670025656651
:103AA000206E01280BD1206800681021884321680E
:103AB00008605820215A200001F08FFD02E020000C
:103AC000FEF757FF256605E020688069082101435D
:103AD00020688161F1BD0000DFFEFFFF80B5064870
:103AE000016810220A430260002001F077FD01F016
:103AF0009DFD002002BD000000200240F8B586B008
:103B00001421002422006D46280000F025FF8021AA
:103B10000903314802680A430260026811400591B6
:103B200005998021C90302680A43026002681140B6
:103B3000059105998021890202680A4302600268A2
:103B40001140059105998021C90202680A4302606B
:103B500000680140059105988E256D01002229001D
:103B60009020C005FEF7F6FD1C4F002239001C48CE
:103B7000FEF7F0FDE020000200900326019602947B
:103B800069461848FEF742FC00950125019502940C
:103B9000039469469020C005FEF738FC0097019514
:103BA0000294039469460E48FEF730FC84204001DD
:103BB00000900194029469460948FEF727FC88208A
:103BC000000200900196029469469020C005FEF71D
:103BD0001DFC07B0F0BD00BF1410024067E30000F9
:103BE000000400480008004880B551485149016070
:103BF000E1218901416000218160C16001610C22E5
:103C000042618161C1610162082141628021090232
:103C10004163FEF7E5FF002801D0FEF778FF01BD04
:103C200080B54548D6490160E12189014160002104
:103C30008160C16001610C2242618161C1610162E8
:103C40004162FEF7CDFF002801D0FEF760FF01BD05
:103C500080B53A48CB490160E121890141600021EA
:103C60008160C16001610C2242618161C1610162B8
:103C700008214162802109024163FEF7B1FF00285B
:103C800001D0FEF744FF01BD80B5BF48BF490160C8
:103C9000E1218901416000218160C16001610C2244
:103CA00042618161C1610162082141628021090292
:103CB0004163FEF795FF002801D0FEF728FF01BD04
:103CC00080B5B348B3490160E12189014160002119
:103CD0008160C16001610C2242618161C161016248
:103CE00008214162802109024163FEF779FF002823
:103CF00001D0FEF70CFF01BD80B5A748A7490160C0
:103D0000E1218901416000218160C16001610C22D3
:103D100042618161C1610162082141628021090221
:103D20004163FEF75DFF002801D0FEF7F0FE01BD04
:103D30001404002000380140980400201C050020D5
:103D400070B586B00400142100252A006E463000AC
:103D500000F002FE2068924988422BD18021C901DF
:103D6000904802680A430260006801400591059886
:103D7000802080028C490A6802430A600968084072
:103D800005900598C020C000009002200190029587
:103D9000032003900120049069469020C005FEF79F
:103DA00035FB002200211B2001F0C5FC1B2001F087
:103DB000D2FCE2E020687249884228D17B49802009
:103DC00080020A6802430A6009680140059105996A
:103DD00075490A6802430A60096808400590059819
:103DE0000C200090022001900295032003900120F6
:103DF000049069469020C005FEF708FB00220021D0
:103E00001C2001F098FC1C2001F0A5FCB5E0206806
:103E10005C49884228D18020C00264490A68024374
:103E20000A6009680140059105995F490A680243E3
:103E30000A600968084005900598C02000010090BC
:103E4000022001900295032003900420049069460B
:103E50005748FEF7DBFA002200211D2001F06BFC21
:103E60001D2001F078FC88E020684849884229D16B
:103E7000802109034D4802680A430260006801403E
:103E8000059105988020800247490A6802430A602C
:103E900009680840059005980320009002210191CF
:103EA000029503900420049069469020C005FEF717
:103EB000ADFA002200211D2001F03DFC1D2001F083
:103EC0004AFC5AE020683349884229D180214903BD
:103ED000364802680A43026000680140059105986F
:103EE0008021C902304802680A430260006801402C
:103EF000059105981820009002200190029503205A
:103F000003900420049069462948FEF77FFA0022B6
:103F100000211D2001F00FFC1D2001F01CFC2CE0F5
:103F200020681E49884228D120211E4802680A4381
:103F300002600068014005910598802080021A49BE
:103F40000A6802430A600968084005900598302015
:103F50000090022001900295032003900520049018
:103F600069469020C005FEF751FA002200211D206D
:103F700001F0E1FB1D2001F0EEFB06B070BD00007A
:103F80000044004000480040A0050020004C0040D4
:103F90002406002000500040A80600200014014024
:103FA0000038014018100240141002401C1002405A
:103FB0000004004838B586B010210024220002AD6C
:103FC000280000F0C9FC082122006D46280000F0FE
:103FD000C3FC204D2048286020486860AC60FA206F
:103FE0008000E8602C61AC61280000F03BF80028FC
:103FF00001D0FEF78CFD80204001029002A928002C
:1040000000F004FA002801D0FEF781FD009401942D
:104010006946280001F0C2FB002801D0FEF777FDB9
:1040200007B030BD1CB5040020680B49884210D190
:1040300002200B490A6802430A60096808400090A0
:10404000009800220021102001F075FB102001F0E3
:1040500082FB13BD7C08002000040040C05D00000E
:104060001C10024010B50400002C01D101207CE09E
:1040700020683E49884220D020683D4988421CD0B3
:1040800020683C49884218D020683B49884214D0B7
:1040900020683A49884210D02068394988420CD0BB
:1040A00020683849884208D020683749884204D0BF
:1040B000FF2114313548FEF72BFDA068002810D0F1
:1040C000A06810280DD0A06820280AD0A068402839
:1040D00007D0A068602804D08A2149002B48FEF749
:1040E00017FD206900280ED02069802149008842F0
:1040F00009D0206980218900884204D0FF2116312F
:104100002248FEF705FDA069002807D0A069802895
:1041100004D08B2149001D48FEF7FAFC3D20205CAD
:10412000002805D100203C2160542000FFF77AFFD1
:1041300002203D216054211D206800F083FB0120F6
:10414000462160543E2160543F2160544021605418
:104150004121605442216054432160544421605401
:10416000452160543D216054002010BD002C0140C9
:1041700000040040001000400014004000200040F7
:10418000004001400044014000480140C073000865
:1041900070B50400294D2068A84220D02068284925
:1041A00088421CD020682749884218D020682649B8
:1041B000884214D020682649884210D020682349BC
:1041C00088420CD020682349884208D020682249C0
:1041D000884204D0FF21D0312048FEF799FC3D20D1
:1041E000205C012801D0012026E002203D216054FE
:1041F00001202168C96801432268D1602168A94271
:1042000007D021680E4A914203D021680F4A91429B
:104210000CD1216889684907490F0E00062E0AD083
:104220002168096808432168086004E0216809687A
:10423000084321680860002070BD0000002C014088
:104240000004004000100040001400400040014005
:10425000002000400044014000480140C0730008B5
:1042600070B50400022620680069304000281CD088
:104270002068C0683040002817D00220C043216861
:10428000086101202077206880698007800F00285E
:1042900003D0200001F004FB05E0200001F001FB49
:1042A000200001F0FFFA0020207704252068006933
:1042B000284000281CD02068C0682840002817D05B
:1042C0000420C04321680861267720688069C021E6
:1042D00089000140002903D0200001F0E1FA05E047
:1042E000200001F0DEFA200001F0DCFA0020207747
:1042F000082620680069304000281BD02068C0686C
:104300003040002816D00820C04321680861257776
:104310002068C0698007800F002803D0200001F0CA
:10432000BFFA05E0200001F0BCFA200001F0BAFA63
:1043300000202077102021680969014000291CD045
:104340002168C9680840002817D01020C0432168A0
:10435000086126772068C069C021890001400029D2
:1043600003D0200001F09CFA05E0200001F099FA4A
:10437000200001F097FA00202077012021680969C8
:10438000014000290BD02168C9680840002806D0E8
:104390000120C043216808612000FEF7F0FA802068
:1043A00021680969014000290BD02168C9680840CB
:1043B000002806D08020C04321680861200001F059
:1043C00072FA402021680969014000290BD0216858
:1043D000C9680840002806D04020C0432168086111
:1043E000200001F061FA20202168096901400029BC
:1043F0000BD02168C9680840002806D02020C0439F
:1044000021680861200001F050FA70BDF8B5050080
:104410000C003C20285C012801D10220E5E10127A5
:104420003C202F5402203D216854802676012068CC
:10443000B04220D020688021890188421BD02068AA
:10444000002818D02068102815D02068202812D005
:10445000206830280FD0206840280CD020685028D1
:1044600009D02068602806D02068702803D07449DD
:104470007448FEF74DFB28688068772188437249AD
:10448000014000910098296888602068002800D1C8
:104490008DE1102800D18AE1202800D187E1302861
:1044A00000D184E1402800D146E1502800D1D7E076
:1044B000602800D10AE170282DD08021490188426E
:1044C00004D080218901884270D088E12868AF49F2
:1044D00088421FD02868AE4988421BD028685B49B3
:1044E000884217D028685A49884213D02868594909
:1044F00088420FD02868B34988420BD028685649B3
:10450000884207D028685549884203D0B7494D48AA
:10451000FEF7FEFA63E128689C49884207D02868C4
:104520009B49884203D0B2494648FEF7F1FAA06899
:10453000002810D0A068B0420DD0A0688021890169
:10454000884208D0A068C0218901884203D0A949C7
:104550003C48FEF7DDFA60688021090288420FD0EE
:10456000606800280CD06068002809D060680228C4
:1045700006D060680A2803D09F493248FEF7C8FA7F
:10458000E068102803D39D492E48FEF7C1FAE3687E
:104590006268A168286800F0CDF9286880687721F2
:1045A0000143009100982968886018E128687749DC
:1045B000884207D028687649884203D0904921482C
:1045C000FEF7A6FAA068002810D0A068B0420DD06F
:1045D000A06880218901884208D0A068C021890193
:1045E000884203D087491748FEF792FA6068802115
:1045F000090288420FD0606800280CD0606800284B
:1046000009D06068022806D060680A2803D07E4975
:104610000C48FEF77DFAE068102803D37B4909486F
:10462000FEF776FAE3686268A168286800F082F90C
:10463000286880688021C901014328688160CEE034
:1046400027140000C0730008FF00FFFF00100040A7
:104650000014004000200040004401400048014098
:1046600028684A4988420BD028684949884207D0BF
:1046700028685449884203D065496848FEF748FADB
:1046800060688021090288420FD0606800280CD041
:104690006068002809D06068022806D060680A288F
:1046A00003D05C495D48FEF733FAE068102803D375
:1046B00059495A48FEF72CFAE2686168286800F008
:1046C0000BF95021286800F02DF988E028682F495F
:1046D00088420BD028682E49884207D0286839497B
:1046E000884203D04E494D48FEF712FA6068802197
:1046F000090288420FD0606800280CD0606800284A
:1047000009D06068022806D060680A2803D04549AD
:104710004248FEF7FDF9E068102803D342493F48BC
:10472000FEF7F6F9E2686168286800F0E7F86021B2
:10473000286800F0F7F852E02868144988420BD046
:1047400028681349884207D028681E49884203D048
:1047500036493248FEF7DCF9606880210902884258
:104760000FD0606800280CD06068002809D060680D
:10477000022806D060680A2803D02D492748FEF792
:10478000C7F9E068102808D32A4903E0002C01404B
:10479000000400402148FEF7BBF9E2686168286820
:1047A00000F09AF84021286800F0BCF817E028686B
:1047B000214988420ED02868204988420AD02868BA
:1047C000004901E000400140884203D01C491348E1
:1047D000FEF79EF92168286800F0A4F8FFE73D2065
:1047E0002F5400203C2168540020F2BD33140000F7
:1047F0003A1400003D1400003E1400003F14000075
:104800005214000055140000561400005714000004
:1048100066140000691400006A140000C0730008E8
:1048200076140000791400007A1400008614000049
:10483000891400008A140000002C0140000400408C
:104840009914000010B503681C4A904202D01C4C19
:10485000A04204D17024A3431C004B682343904220
:104860000ED0174CA0420BD0164CA04208D0164CCC
:10487000A04205D0154CA04202D0154CA04203D155
:10488000144C1C40CB6823438024A3434C691C4335
:1048900004608B68C3620B688362904208D00A4A46
:1048A000904205D0094A904202D0094A904201D173
:1048B0000A6902630122426110BD0000002C014020
:1048C000000400400020004000400140004401403E
:1048D00000480140FFFCFFFF30B4036A046A012571
:1048E000AC4304628469F025AC43150125430A24D6
:1048F000A3430B438561036230BC704730B4036A45
:104900001024A34303628469036A114D25401403F4
:104910002C43A025AB430D011D438461056230BCCF
:1049200070470000826870239A4307230B431343A8
:104930008360704770B48468064D254016000E43AE
:104940001C0234432C43846070BC7047000000009C
:10495000FF0FFFFFFF00FFFF1206130A1A43130C9D
:104960001A4300BF094205D0830705D00270401CDE
:10497000491EF9D1704700001300103906D330B436
:104980001400150010393CC0FCD230BC490700D3DC
:104990000CC000D504C0890002D30280801C00290D
:1049A00000D5027070474300F8B584B00400002CB5
:1049B00001D1012044E32068002809D02078C006F6
:1049C000C00E002804D1FF213A31A848FEF7A0F814
:1049D0002078C00774D5606800280AD06068012874
:1049E00007D06068052804D0FF2140319F48FEF7BA
:1049F0008FF80C209E490A680240042A09D00A68F0
:104A0000104008280ED180204002096801408142F0
:104A100008D198480068800352D5606800284FD1BB
:104A200001200DE36068012806D1924801688022C8
:104A300052020A43026024E06068002809D18D48D0
:104A40000168B34A0A4002600168B24A0A40026043
:104A500017E0606805280BD1864801688022D202E1
:104A60000A4302600168802252020A43026008E0A1
:104A700080480168A64A0A4002600168A54A0A40C7
:104A80000260606800280DD000F026FD050079481E
:104A90000068800314D400F01FFD401B6528F6D386
:104AA0000320CDE200F018FD050072480068800385
:104AB00006D500F011FD401B6528F6D30320BFE2A8
:104AC000207880075ED5E068002807D0E0680128DC
:104AD00004D0FF2174316548FEF71AF820692028B8
:104AE00004D3BA2149006148FEF712F80C2060494E
:104AF0000A680240002A05D00A681040082812D12E
:104B0000086810E05B480168890704D5E16801295D
:104B100001D0012094E20168F82291432269D20079
:104B20000A4302602EE0E068002819D0514E306838
:104B300001210143316000F0CFFC0500306880079F
:104B400006D400F0C9FC401B0328F7D3032077E20A
:104B50003068F82188432169C9000143316011E0C0
:104B6000444E306801218843306000F0B5FC0500F8
:104B70003068800706D500F0AFFC401B0328F7D350
:104B800003205DE22078000731D5E069002807D0D6
:104B9000E069012804D0DA2149003448FDF7B8FF64
:104BA000E069002811D0904E306801210143316046
:104BB00000F092FC05003068800718D400F08CFCEF
:104BC000401B0328F7D303203AE2874E30680121C7
:104BD0008843306000F080FC05003068800706D50F
:104BE00000F07AFC401B0328F7D3032028E20426B8
:104BF00020683040002800D197E000206946087006
:104C0000A06800280AD0A068012807D0A06805285D
:104C100004D0F02149001548FDF77AFF80204005B7
:104C200072490968014000290AD170490A680243A3
:104C30000A600968084003900398012069460870DB
:104C40006B4F3868C00517D438688021490001438C
:104C5000396000F041FC05003868C0050CD400F054
:104C60003BFC401B6528F7D30320E9E134730008BF
:104C70000410024000100240A068012805D15D48E0
:104C8000016801220A43026021E0A068002809D1DE
:104C90005848016801229143016001680422914350
:104CA000016014E0A068052808D15248016831432A
:104CB0000160016801220A43026008E04D48016872
:104CC0000122914301600168042291430160A068C0
:104CD00000280ED000F000FC050046480068800760
:104CE0001AD400F0F9FB401B43498842F5D3032056
:104CF000A6E100F0F1FB05003E48006880070BD5F7
:104D000000F0EAFB401B3C498842F5D3032097E1C1
:104D1000FFFFFEFFFFFFFBFF68460078012804D17C
:104D200032480168B14A0A4002602078C00665D561
:104D3000606900280BD06069012808D060690421EF
:104D4000C943884203D0AA49AA48FDF7E1FEA069F9
:104D5000202803D3A849A748FDF7DAFE6069012897
:104D60001CD1B84F386806433E60386801210143C2
:104D7000396000F0B1FB05003868800706D400F008
:104D8000ABFB401B0328F7D3032059E13868F82117
:104D90008843A169C900014339602FE00421C94358
:104DA000606988420BD1A748026811400160016820
:104DB000F8229143A269D2000A4302601EE0A14F8B
:104DC000386806433E60386801218843386000F047
:104DD00083FB05003868800710D500F07DFB401B81
:104DE0000328F7D303202BE1241002401C100240BB
:104DF000007000402010024089130000206A002843
:104E000009D0206A012806D0206A022803D08E49E2
:104E10007848FDF77DFE206A002800D10FE18B481D
:104E200000680C210140082900D1E7E0206A02282F
:104E300000D0C8E0606A80210902884208D0606A18
:104E400080214902884203D081496A48FDF760FE0B
:104E5000A06A00284AD0A06A8021C902884245D0B1
:104E6000A06A80210903884240D0A06AC0210903BA
:104E700088423BD0A06A80214903884236D0A06A8C
:104E8000A0214903884231D0A06AC0214903884249
:104E90002CD0A06AE0214903884227D0A06A802153
:104EA0008903884222D0A06A9021890388421DD0BC
:104EB000A06AA0218903884218D0A06AB021890382
:104EC000884213D0A06AC021890388420ED0A06A0C
:104ED000D0218903884209D0A06AE0218903884251
:104EE00004D0A92189004348FDF712FEE06A00289A
:104EF00030D0E06A01282DD0E06A02282AD0E06A8A
:104F0000032827D0E06A042824D0E06A052821D0AD
:104F1000E06A06281ED0E06A07281BD0E06A08284D
:104F200018D0E06A092815D0E06A0A2812D0E06A91
:104F30000B280FD0E06A0C280CD0E06A0D2809D0AD
:104F4000E06A0E2806D0E06A0F2803D041492948BC
:104F5000FDF7DEFD404F386840490140396000F000
:104F6000BBFA00908026B60438683040002807D08D
:104F700000F0B2FA0099401A0328F3D303205FE04F
:104F8000B04801680F229143E26A0A4302602F4849
:104F90000168334A0A40A16A1143626A0A43026007
:104FA0003868802149040143396000F095FA050012
:104FB00038683040002842D100F08EFA401B0328A8
:104FC000F6D303203CE0244E306824490140316090
:104FD00000F082FA05003068800130D500F07CFADC
:104FE000401B0328F7D303202AE000BFFFFFFFEF99
:104FF000260200003473000827020000206A0128FE
:1050000001D101201CE01148006801908D48006822
:1050100002900198802149020840616A88420CD1BF
:1050200002980007000FE16A884206D10198F0213A
:1050300089030140A06A814201D0012000E00020E4
:1050400005B0F0BD341002409A0200000410024086
:10505000A3020000A502000000100240FFFFFFFEB7
:10506000FFFFC2FFF3B581B00400002C01D1012085
:10507000E6E020784007400F002803D172497348CA
:10508000FDF746FD0298002806D00298012803D0BB
:105090006F496E48FDF73CFD6E4E01253068284093
:1050A000029988420CD23068012188430299014359
:1050B0003160306828400299884201D00120BFE069
:1050C00002272068384000282ED02078400705D5D8
:1050D00061480168E022D2000A430260A06800280B
:1050E0001BD0A068802818D0A068902815D0A06890
:1050F000A02812D0A068B0280FD0A068C0280CD07B
:10510000A068D02809D0A068E02806D0A068F028C0
:1051100003D052494D48FDF7FBFC4F480168F0228F
:105120009143A2680A4302602068284000283FD0CB
:105130006068002809D06068012806D060680228ED
:1051400003D047494148FDF7E3FC6068012805D1D9
:1051500062480068800311D4012071E06068022871
:1051600005D15E480068800108D4012068E05B48F2
:1051700000680740002F01D1012061E0364F3868F8
:105180000321884361680143396000F0A5F900906C
:1051900038680C21014060688000814208D000F02E
:1051A0009BF90099401A56498842F1D3032047E001
:1051B00002983168294088420CD230680121884326
:1051C000029901433160306805400298854201D060
:1051D000012035E02078400722D5E068002818D06B
:1051E000E0688021C900884213D0E068A021C9008E
:1051F00088420ED0E068C021C900884209D0E0682A
:10520000E021C900884204D0E12189000F48FDF760
:105210007FFC114801683B4A0A40E1681143016084
:1052200000F020F838490C4A126812091207120FD0
:10523000895CC84035490860002000F0CFF90020A3
:10524000FEBD00002C10024016030000347300085D
:105250001703000000200240041002403603000043
:105260003D030000F0B589B005A82949102200F0DF
:1052700039F901A82749102200F034F90024200050
:1052800000942500260024490F680C213940042988
:1052900002D0082902D01EE020481DE00F2005A9F9
:1052A000BA0C0240895C0E0001A91D4A1268104028
:1052B000085C0090F80306D518480099FCF771FDCA
:1052C0007043050005E017480099FCF76AFD70433C
:1052D0000500280000E0134809B0F0BD00100240AE
:1052E0000A480068704780B5FFF7FAFF0E490A4A7E
:1052F0001268120A5207520F895CC84002BD0000B2
:1053000089130000FFF8FFFFBC7600081C00002096
:105310009C760008AC7600080410024000366E014E
:105320002C10024000127A00E8760008F8B584B02C
:10533000040000250295019520685D49884203D349
:105340006E215C48FDF7E4FB2068C00300D47EE0DA
:105350006068002812D060688021490088420DD022
:10536000606880218900884208D06068C021890077
:10537000884203D074214F48FDF7CAFB6846057088
:10538000802040054C4D29680140002909D1296839
:105390000143296029680840039003980120694669
:1053A0000870464E80277F0030683840002811D1B1
:1053B00030683843306000F08FF802903068384031
:1053C000002807D100F088F80299401A6528F5D323
:1053D00003206BE03A4EC02080003168014001910B
:1053E0000199002925D0019962681040814220D09E
:1053F00030683449014001913068802149020143FD
:105400003160306830490140316001983060019866
:10541000C0070ED500F060F802903068800708D40D
:1054200000F05AF80299401A28498842F5D303201F
:105430003CE03068234901406068084330606846BA
:105440000078012803D1286821490140296020788B
:10545000C00716D5A06800280CD0A068012809D084
:10546000A068022806D0A068032803D0BB211148F9
:10547000FDF74EFB1748016803229143A2680A43D7
:1054800002602078800610D5E068002806D0E06829
:10549000102803D0DF210748FDF73AFB0D480168CB
:1054A00010229143E2680A430260002005B0F0BD7B
:1054B00022000100847100081C10024000700040AE
:1054C00020100240FFFCFFFFFFFFFEFF89130000DA
:1054D000FFFFFFEF3010024001480068704700BF37
:1054E0004809002070B4103A03D378C9103A78C044
:1054F000FBD2530701D318C918C001D508C908C089
:10550000D20704D30B880380891C801C002A01D594
:105510000B78037070BC70478B0701D18307E1D013
:10552000124205D00B78491C0370401C521EF9D161
:105530007047FEE700B501002120085C022806D074
:1055400004208863002020228854012017E0086886
:1055500000680E2290430A68106008680068012203
:1055600090430A68106001200A6C03009340CA6BE4
:10557000536021228854002020228854002000BD3E
:1055800038B50400002005002121615C022904D007
:105590000420A063012005001BE0216809680E2299
:1055A00091432268116021680968012291432268B1
:1055B00011600121226C0B009340E26B53602122A9
:1055C000A15420216054606B002802D02000616B40
:1055D00088472800C0B232BD7047704710B504003C
:1055E000FA2080000E490978FCF7DBFB01000D482A
:1055F0000068FCF7D6FB00F0BDF8002801D00120C0
:105600000CE0042C09D2002221000020C04300F04D
:1056100092F805480460002000E0012010BD00BFA2
:10562000E80000201C0000201800002081B00120AC
:1056300009490A6802430A60096808400090009816
:105640008020400505490A6802430A60096808404D
:105650000090009801B07047181002401C100240E2
:1056600000B5010049B2002905D40121C206D20EBD
:105670009140434A116000BDF0B5020052B2002AC9
:105680001CD403223F4B040064B2A40804256C43DD
:105690001C59FF251600064008277E43B540AC4341
:1056A0008D01EDB202400826724395402543020069
:1056B00052B29208042462439D5022E00F24324AE1
:1056C000032305006DB22540083DAD08042675434F
:1056D000060076B23440083CA408042674431659E8
:1056E000FF27BC461C00044008277C436746A740B0
:1056F000BE438C01E4B2034008277B439C40344303
:105700005451F0BD10B50400601E80214904884248
:1057100001D301200EE0601E1C4908600321002017
:10572000C043FFF7A9FF0020194908600720194965
:105730000860002010BD70B505000C001600042C98
:1057400003D38B211448FDF7E3F92100280040B270
:10575000FFF792FF70BD10B50400200040B2002892
:1057600003D59B210C48FDF7D3F9200040B2FFF789
:1057700077FF10BD10B504002000FFF7C3FF10BD78
:1057800000E100E000E400E01CED00E014E000E0D7
:1057900018E000E010E000E06470000870B504005C
:1057A0000D00374E2068B04214D020683549884239
:1057B00010D02068344988420CD020683349884290
:1057C00008D020683549884204D0EC21C90030480F
:1057D000FDF79EF92868002818D02868102815D0F1
:1057E0002868202812D0286830280FD02868402840
:1057F0000CD02868502809D02868602806D028686E
:10580000702803D023492248FDF782F96868802870
:1058100006D06868002803D01F491D48FDF778F9B5
:105820003C20205C012801D1022027E001203C21FE
:10583000605402213D22A15421684A682168896888
:1058400070239A432B681343226853602268B24244
:1058500007D022680B4EB24203D022680F4EB242EC
:1058600006D1802291430A00696811432268916041
:105870003D22A05400203C22A054002070BD000016
:10588000002C0140000400400010004000140040C3
:105890001472000861070000620700000040014028
:1058A000704770477047704770477047FDB5B6B096
:1058B0003E9801AA0023002418C2069104A93B22A5
:1058C00088540F9319A8401C33900F206946C87064
:1058D00013E0379C3500369F21780698B84706902C
:1058E000002800D140E10F98401C0F90641C6D1EF1
:1058F000F2D1369737988019379037980078252855
:105900000ED1002009900A900B900C900D900E90F3
:10591000002102240420189008201490379D0FE0E5
:1059200001AA0021C943379801F094F8060001D17B
:105930000F981BE1CDD50126DCE7080001210143CA
:105940006D1C28782028F8D023280BD02B2804D0D1
:105950002D2804D0302808D00AE02143F0E70800C1
:105960001899ECE708000821E9E708001021E6E7AC
:105970002A280FD1389802681068121D389B1A60C7
:105980001190002804D54242119208001899014351
:105990006D1C12E000201190B84A09E0119B93425F
:1059A00005DA9E00F3185B001818303811906D1C52
:1059B00028780300303B0A2BF0D328782E2803D018
:1059C0000020C043109027E06D1C28782A2808D1B9
:1059D000389800680268001D389B186010926D1C92
:1059E0001AE02D2802D12D226D1C00E0002200209B
:1059F0001090A24B0BE0002A08D1109E9E4205DABF
:105A0000B700BE1976003018303810906D1C287819
:105A10000600303E0A2EEED304A801872E7831000E
:105A200056487844FF30573001F026F8002801D05E
:105A30006D1C00E0002604A83A214654405C68280A
:105A400004D1287868280BD1622005E06C2807D1A2
:105A500028786C2804D1712004A93A2288546D1C3E
:105A600024A80890287869460870681C3790684612
:105A700005782800253834D01C3800D19AE1001F61
:105A8000022800D896E10E3831D0401F01D100F035
:105A900022FD093800D18DE1801E01D100F0B9FD51
:105AA000401E01D100F065FD401E022800D881E1B2
:105AB000001F01D100F05DFD401F00D1D0E0401E6D
:105AC00001D100F008FD401E78D0C01E27D0801EF6
:105AD00001D100F000FDC01E01D100F0FCFC00F07F
